{
  "_format": "hh-sol-artifact-1",
  "contractName": "WavePortal",
  "sourceName": "contracts/WaveProtal.sol",
  "abi": [
    {
      "inputs": [],
      "stateMutability": "payable",
      "type": "constructor"
    },
    {
      "anonymous": false,
      "inputs": [
        {
          "indexed": true,
          "internalType": "address",
          "name": "from",
          "type": "address"
        },
        {
          "indexed": false,
          "internalType": "uint256",
          "name": "timestamp",
          "type": "uint256"
        },
        {
          "indexed": false,
          "internalType": "string",
          "name": "message",
          "type": "string"
        }
      ],
      "name": "NewWave",
      "type": "event"
    },
    {
      "inputs": [
        {
          "internalType": "address",
          "name": "waver",
          "type": "address"
        }
      ],
      "name": "getAddressToWaves",
      "outputs": [
        {
          "internalType": "uint256",
          "name": "",
          "type": "uint256"
        }
      ],
      "stateMutability": "view",
      "type": "function"
    },
    {
      "inputs": [],
      "name": "getAllWaves",
      "outputs": [
        {
          "components": [
            {
              "internalType": "address",
              "name": "waver",
              "type": "address"
            },
            {
              "internalType": "string",
              "name": "message",
              "type": "string"
            },
            {
              "internalType": "uint256",
              "name": "timestamp",
              "type": "uint256"
            }
          ],
          "internalType": "struct WavePortal.Wave[]",
          "name": "",
          "type": "tuple[]"
        }
      ],
      "stateMutability": "view",
      "type": "function"
    },
    {
      "inputs": [],
      "name": "getTotalWaves",
      "outputs": [
        {
          "internalType": "uint256",
          "name": "",
          "type": "uint256"
        }
      ],
      "stateMutability": "view",
      "type": "function"
    },
    {
      "inputs": [],
      "name": "getWavers",
      "outputs": [
        {
          "internalType": "address[]",
          "name": "",
          "type": "address[]"
        }
      ],
      "stateMutability": "view",
      "type": "function"
    },
    {
      "inputs": [
        {
          "internalType": "address",
          "name": "",
          "type": "address"
        }
      ],
      "name": "lastWavedAt",
      "outputs": [
        {
          "internalType": "uint256",
          "name": "",
          "type": "uint256"
        }
      ],
      "stateMutability": "view",
      "type": "function"
    },
    {
      "inputs": [
        {
          "internalType": "string",
          "name": "_message",
          "type": "string"
        }
      ],
      "name": "wave",
      "outputs": [],
      "stateMutability": "nonpayable",
      "type": "function"
    }
  ],
  "bytecode": "0x60806040526200004f6040518060400160405280601a81526020017f4d7920666972737420736f6c69646974792070726f6a656374210000000000008152506200007760201b620008c81760201c565b606444426200005f91906200017c565b6200006b9190620001e6565b600381905550620002dc565b62000117816040516024016200008e9190620002b8565b6040516020818303038152906040527f41304fac000000000000000000000000000000000000000000000000000000007bffffffffffffffffffffffffffffffffffffffffffffffffffffffff19166020820180517bffffffffffffffffffffffffffffffffffffffffffffffffffffffff83818316178352505050506200011a60201b60201c565b50565b60008151905060006a636f6e736f6c652e6c6f679050602083016000808483855afa5050505050565b6000819050919050565b7f4e487b7100000000000000000000000000000000000000000000000000000000600052601160045260246000fd5b6000620001898262000143565b9150620001968362000143565b9250828201905080821115620001b157620001b06200014d565b5b92915050565b7f4e487b7100000000000000000000000000000000000000000000000000000000600052601260045260246000fd5b6000620001f38262000143565b9150620002008362000143565b925082620002135762000212620001b7565b5b828206905092915050565b600081519050919050565b600082825260208201905092915050565b60005b838110156200025a5780820151818401526020810190506200023d565b60008484015250505050565b6000601f19601f8301169050919050565b600062000284826200021e565b62000290818562000229565b9350620002a28185602086016200023a565b620002ad8162000266565b840191505092915050565b60006020820190508181036000830152620002d4818462000277565b905092915050565b6116a080620002ec6000396000f3fe608060405234801561001057600080fd5b50600436106100625760003560e01c806343882ff014610067578063449d46c014610097578063635f29f8146100b35780639a2cdc08146100d1578063a42a4663146100ef578063bd43a9081461011f575b600080fd5b610081600480360381019061007c9190610b34565b61013d565b60405161008e9190610b7a565b60405180910390f35b6100b160048036038101906100ac9190610cdb565b6101e7565b005b6100bb610686565b6040516100c89190610de2565b60405180910390f35b6100d9610714565b6040516100e69190610b7a565b60405180910390f35b61010960048036038101906101049190610b34565b61075f565b6040516101169190610b7a565b60405180910390f35b610127610777565b6040516101349190610fa4565b60405180910390f35b60006101a060405180606001604052806022815260200161164960229139600160008573ffffffffffffffffffffffffffffffffffffffff1673ffffffffffffffffffffffffffffffffffffffff16815260200190815260200160002054610961565b600160008373ffffffffffffffffffffffffffffffffffffffff1673ffffffffffffffffffffffffffffffffffffffff168152602001908152602001600020549050919050565b42603c600260003373ffffffffffffffffffffffffffffffffffffffff1673ffffffffffffffffffffffffffffffffffffffff168152602001908152602001600020546102349190610ff5565b10610274576040517f08c379a000000000000000000000000000000000000000000000000000000000815260040161026b90611086565b60405180910390fd5b42600260003373ffffffffffffffffffffffffffffffffffffffff1673ffffffffffffffffffffffffffffffffffffffff1681526020019081526020016000208190555060016000808282546102ca9190610ff5565b925050819055506103106040518060400160405280600d81526020017f2573206861732077617665642100000000000000000000000000000000000000815250336109fd565b60018060003373ffffffffffffffffffffffffffffffffffffffff1673ffffffffffffffffffffffffffffffffffffffff168152602001908152602001600020600082825461035f9190610ff5565b925050819055506004339080600181540180825580915050600190039060005260206000200160009091909190916101000a81548173ffffffffffffffffffffffffffffffffffffffff021916908373ffffffffffffffffffffffffffffffffffffffff160217905550600560405180606001604052803373ffffffffffffffffffffffffffffffffffffffff16815260200183815260200142815250908060018154018082558091505060019003906000526020600020906003020160009091909190915060008201518160000160006101000a81548173ffffffffffffffffffffffffffffffffffffffff021916908373ffffffffffffffffffffffffffffffffffffffff160217905550602082015181600101908161048191906112b2565b506040820151816002015550506064444261049c9190610ff5565b6104a691906113b3565b6003819055506104ed6040518060400160405280601681526020017f52616e646f6d20232067656e6572617465643a20256400000000000000000000815250600354610961565b603260035411610633576105366040518060400160405280600781526020017f257320776f6e2100000000000000000000000000000000000000000000000000815250336109fd565b6000655af3107a4000905047811115610584576040517f08c379a000000000000000000000000000000000000000000000000000000000815260040161057b90611456565b60405180910390fd5b60003373ffffffffffffffffffffffffffffffffffffffff16826040516105aa906114a7565b60006040518083038185875af1925050503d80600081146105e7576040519150601f19603f3d011682016040523d82523d6000602084013e6105ec565b606091505b5050905080610630576040517f08c379a00000000000000000000000000000000000000000000000000000000081526004016106279061152e565b60405180910390fd5b50505b3373ffffffffffffffffffffffffffffffffffffffff167f5f7e16dc676677766a70e9c5628aa6c54ddb8b6e5188e2ae1e1f17f1ffbea716428360405161067b929190611587565b60405180910390a250565b6060600480548060200260200160405190810160405280929190818152602001828054801561070a57602002820191906000526020600020905b8160009054906101000a900473ffffffffffffffffffffffffffffffffffffffff1673ffffffffffffffffffffffffffffffffffffffff16815260200190600101908083116106c0575b5050505050905090565b60006107576040518060400160405280601781526020017f5765206861766520256420746f74616c20776176657321000000000000000000815250600054610961565b600054905090565b60026020528060005260406000206000915090505481565b60606005805480602002602001604051908101604052809291908181526020016000905b828210156108bf57838290600052602060002090600302016040518060600160405290816000820160009054906101000a900473ffffffffffffffffffffffffffffffffffffffff1673ffffffffffffffffffffffffffffffffffffffff1673ffffffffffffffffffffffffffffffffffffffff168152602001600182018054610824906110d5565b80601f0160208091040260200160405190810160405280929190818152602001828054610850906110d5565b801561089d5780601f106108725761010080835404028352916020019161089d565b820191906000526020600020905b81548152906001019060200180831161088057829003601f168201915b505050505081526020016002820154815250508152602001906001019061079b565b50505050905090565b61095e816040516024016108dc91906115b7565b6040516020818303038152906040527f41304fac000000000000000000000000000000000000000000000000000000007bffffffffffffffffffffffffffffffffffffffffffffffffffffffff19166020820180517bffffffffffffffffffffffffffffffffffffffffffffffffffffffff8381831617835250505050610a99565b50565b6109f982826040516024016109779291906115d9565b6040516020818303038152906040527fb60e72cc000000000000000000000000000000000000000000000000000000007bffffffffffffffffffffffffffffffffffffffffffffffffffffffff19166020820180517bffffffffffffffffffffffffffffffffffffffffffffffffffffffff8381831617835250505050610a99565b5050565b610a958282604051602401610a13929190611618565b6040516020818303038152906040527f319af333000000000000000000000000000000000000000000000000000000007bffffffffffffffffffffffffffffffffffffffffffffffffffffffff19166020820180517bffffffffffffffffffffffffffffffffffffffffffffffffffffffff8381831617835250505050610a99565b5050565b60008151905060006a636f6e736f6c652e6c6f679050602083016000808483855afa5050505050565b6000604051905090565b600080fd5b600080fd5b600073ffffffffffffffffffffffffffffffffffffffff82169050919050565b6000610b0182610ad6565b9050919050565b610b1181610af6565b8114610b1c57600080fd5b50565b600081359050610b2e81610b08565b92915050565b600060208284031215610b4a57610b49610acc565b5b6000610b5884828501610b1f565b91505092915050565b6000819050919050565b610b7481610b61565b82525050565b6000602082019050610b8f6000830184610b6b565b92915050565b600080fd5b600080fd5b6000601f19601f8301169050919050565b7f4e487b7100000000000000000000000000000000000000000000000000000000600052604160045260246000fd5b610be882610b9f565b810181811067ffffffffffffffff82111715610c0757610c06610bb0565b5b80604052505050565b6000610c1a610ac2565b9050610c268282610bdf565b919050565b600067ffffffffffffffff821115610c4657610c45610bb0565b5b610c4f82610b9f565b9050602081019050919050565b82818337600083830152505050565b6000610c7e610c7984610c2b565b610c10565b905082815260208101848484011115610c9a57610c99610b9a565b5b610ca5848285610c5c565b509392505050565b600082601f830112610cc257610cc1610b95565b5b8135610cd2848260208601610c6b565b91505092915050565b600060208284031215610cf157610cf0610acc565b5b600082013567ffffffffffffffff811115610d0f57610d0e610ad1565b5b610d1b84828501610cad565b91505092915050565b600081519050919050565b600082825260208201905092915050565b6000819050602082019050919050565b610d5981610af6565b82525050565b6000610d6b8383610d50565b60208301905092915050565b6000602082019050919050565b6000610d8f82610d24565b610d998185610d2f565b9350610da483610d40565b8060005b83811015610dd5578151610dbc8882610d5f565b9750610dc783610d77565b925050600181019050610da8565b5085935050505092915050565b60006020820190508181036000830152610dfc8184610d84565b905092915050565b600081519050919050565b600082825260208201905092915050565b6000819050602082019050919050565b600081519050919050565b600082825260208201905092915050565b60005b83811015610e6a578082015181840152602081019050610e4f565b60008484015250505050565b6000610e8182610e30565b610e8b8185610e3b565b9350610e9b818560208601610e4c565b610ea481610b9f565b840191505092915050565b610eb881610b61565b82525050565b6000606083016000830151610ed66000860182610d50565b5060208301518482036020860152610eee8282610e76565b9150506040830151610f036040860182610eaf565b508091505092915050565b6000610f1a8383610ebe565b905092915050565b6000602082019050919050565b6000610f3a82610e04565b610f448185610e0f565b935083602082028501610f5685610e20565b8060005b85811015610f925784840389528151610f738582610f0e565b9450610f7e83610f22565b925060208a01995050600181019050610f5a565b50829750879550505050505092915050565b60006020820190508181036000830152610fbe8184610f2f565b905092915050565b7f4e487b7100000000000000000000000000000000000000000000000000000000600052601160045260246000fd5b600061100082610b61565b915061100b83610b61565b925082820190508082111561102357611022610fc6565b5b92915050565b600082825260208201905092915050565b7f5761697420316d00000000000000000000000000000000000000000000000000600082015250565b6000611070600783611029565b915061107b8261103a565b602082019050919050565b6000602082019050818103600083015261109f81611063565b9050919050565b7f4e487b7100000000000000000000000000000000000000000000000000000000600052602260045260246000fd5b600060028204905060018216806110ed57607f821691505b602082108103611100576110ff6110a6565b5b50919050565b60008190508160005260206000209050919050565b60006020601f8301049050919050565b600082821b905092915050565b6000600883026111687fffffffffffffffffffffffffffffffffffffffffffffffffffffffffffffffff8261112b565b611172868361112b565b95508019841693508086168417925050509392505050565b6000819050919050565b60006111af6111aa6111a584610b61565b61118a565b610b61565b9050919050565b6000819050919050565b6111c983611194565b6111dd6111d5826111b6565b848454611138565b825550505050565b600090565b6111f26111e5565b6111fd8184846111c0565b505050565b5b81811015611221576112166000826111ea565b600181019050611203565b5050565b601f8211156112665761123781611106565b6112408461111b565b8101602085101561124f578190505b61126361125b8561111b565b830182611202565b50505b505050565b600082821c905092915050565b60006112896000198460080261126b565b1980831691505092915050565b60006112a28383611278565b9150826002028217905092915050565b6112bb82610e30565b67ffffffffffffffff8111156112d4576112d3610bb0565b5b6112de82546110d5565b6112e9828285611225565b600060209050601f83116001811461131c576000841561130a578287015190505b6113148582611296565b86555061137c565b601f19841661132a86611106565b60005b828110156113525784890151825560018201915060208501945060208101905061132d565b8683101561136f578489015161136b601f891682611278565b8355505b6001600288020188555050505b505050505050565b7f4e487b7100000000000000000000000000000000000000000000000000000000600052601260045260246000fd5b60006113be82610b61565b91506113c983610b61565b9250826113d9576113d8611384565b5b828206905092915050565b7f547279696e6720746f207769746864726177206d6f7265206d6f6e657920746860008201527f616e2074686520636f6e7472616374206861732e000000000000000000000000602082015250565b6000611440603483611029565b915061144b826113e4565b604082019050919050565b6000602082019050818103600083015261146f81611433565b9050919050565b600081905092915050565b50565b6000611491600083611476565b915061149c82611481565b600082019050919050565b60006114b282611484565b9150819050919050565b7f4661696c656420746f207769746864726177206d6f6e6579212066726f6d206360008201527f6f6e747261637400000000000000000000000000000000000000000000000000602082015250565b6000611518602783611029565b9150611523826114bc565b604082019050919050565b600060208201905081810360008301526115478161150b565b9050919050565b600061155982610e30565b6115638185611029565b9350611573818560208601610e4c565b61157c81610b9f565b840191505092915050565b600060408201905061159c6000830185610b6b565b81810360208301526115ae818461154e565b90509392505050565b600060208201905081810360008301526115d1818461154e565b905092915050565b600060408201905081810360008301526115f3818561154e565b90506116026020830184610b6b565b9392505050565b61161281610af6565b82525050565b60006040820190508181036000830152611632818561154e565b90506116416020830184611609565b939250505056fe546f74616c20776176657320666f7220676976656e20616464726573732069733a20a264697066735822122095a5f585fede0579b7458e0ebee67cce621bb00767a7b3433612ed6b1f8a9f9464736f6c63430008110033",
  "linkReferences": {},
  "deployedLinkReferences": {}
}